{
    "contractName": "GeneratePhrase",
    "abi": [
        {
            "inputs": [],
            "name": "getPhrases",
            "outputs": [
                {
                    "internalType": "string[]",
                    "name": "",
                    "type": "string[]"
                }
            ],
            "stateMutability": "view",
            "type": "function"
        },
        {
            "inputs": [],
            "name": "getRamdomPhrase",
            "outputs": [
                {
                    "internalType": "string",
                    "name": "",
                    "type": "string"
                }
            ],
            "stateMutability": "view",
            "type": "function"
        },
        {
            "inputs": [
                {
                    "internalType": "uint256",
                    "name": "",
                    "type": "uint256"
                }
            ],
            "name": "phrases",
            "outputs": [
                {
                    "internalType": "string",
                    "name": "",
                    "type": "string"
                }
            ],
            "stateMutability": "view",
            "type": "function"
        }
    ],
    "bytecode": "601860c09081527f70687261736520313a20517565206f6e646120706572726f000000000000000060e0526080908152610140604052601c6101009081527f70687261736520323a205265206c6f63612065737461206672617365000000006101205260a052610073906000906002610086565b5034801561008057600080fd5b5061020d565b8280548282559060005260206000209081019282156100d3579160200282015b828111156100d357825180516100c39184916020909101906100e3565b50916020019190600101906100a6565b506100df929150610163565b5090565b8280546100ef906101d2565b90600052602060002090601f0160209004810192826101115760008555610157565b82601f1061012a57805160ff1916838001178555610157565b82800160010185558215610157579182015b8281111561015757825182559160200191906001019061013c565b506100df929150610180565b808211156100df5760006101778282610195565b50600101610163565b5b808211156100df5760008155600101610181565b5080546101a1906101d2565b6000825580601f106101b1575050565b601f0160209004906000526020600020908101906101cf9190610180565b50565b600181811c908216806101e657607f821691505b6020821081141561020757634e487b7160e01b600052602260045260246000fd5b50919050565b6104918061021c6000396000f3fe608060405234801561001057600080fd5b50600436106100415760003560e01c8063489024f214610046578063d338105314610064578063df2a210e14610077575b600080fd5b61004e61008c565b60405161005b9190610353565b60405180910390f35b61004e61007236600461036d565b610181565b61007f61022d565b60405161005b9190610386565b6000805460405160609242916100aa90839060200190815260200190565b60408051601f198184030181529190528051602090910120905060006100d084836103e8565b9050600081815481106100e5576100e561040a565b9060005260206000200180546100fa90610420565b80601f016020809104026020016040519081016040528092919081815260200182805461012690610420565b80156101735780601f1061014857610100808354040283529160200191610173565b820191906000526020600020905b81548152906001019060200180831161015657829003601f168201915b505050505094505050505090565b6000818154811061019157600080fd5b9060005260206000200160009150905080546101ac90610420565b80601f01602080910402602001604051908101604052809291908181526020018280546101d890610420565b80156102255780601f106101fa57610100808354040283529160200191610225565b820191906000526020600020905b81548152906001019060200180831161020857829003601f168201915b505050505081565b60606000805480602002602001604051908101604052809291908181526020016000905b828210156102fd57838290600052602060002001805461027090610420565b80601f016020809104026020016040519081016040528092919081815260200182805461029c90610420565b80156102e95780601f106102be576101008083540402835291602001916102e9565b820191906000526020600020905b8154815290600101906020018083116102cc57829003601f168201915b505050505081526020019060010190610251565b50505050905090565b6000815180845260005b8181101561032c57602081850181015186830182015201610310565b8181111561033e576000602083870101525b50601f01601f19169290920160200192915050565b6020815260006103666020830184610306565b9392505050565b60006020828403121561037f57600080fd5b5035919050565b6000602080830181845280855180835260408601915060408160051b870101925083870160005b828110156103db57603f198886030184526103c9858351610306565b945092850192908501906001016103ad565b5092979650505050505050565b60008261040557634e487b7160e01b600052601260045260246000fd5b500690565b634e487b7160e01b600052603260045260246000fd5b600181811c9082168061043457607f821691505b6020821081141561045557634e487b7160e01b600052602260045260246000fd5b5091905056fea2646970667358221220992b7445deab7a01a790d772a49472b17f269754d249aa148ea5c36697d9460164736f6c634300080c0033",
    "sourcePath": "c:/Users/Nahuee/Projects/Solidity/Prueba-Project/Microsoft-template/contracts/GeneratePhrase.sol",
    "compiler": {
        "name": "solc",
        "version": "0.8.12+commit.f00d7308"
    },
    "functionHashes": {
        "getPhrases()": "df2a210e",
        "getRamdomPhrase()": "489024f2",
        "phrases(uint256)": "d3381053"
    },
    "gasEstimates": {
        "creation": {
            "codeDepositCost": "233800",
            "executionCost": "infinite",
            "totalCost": "infinite"
        },
        "external": {
            "getPhrases()": "infinite",
            "getRamdomPhrase()": "infinite",
            "phrases(uint256)": "infinite"
        }
    }
}